:020000040800F2
:100000008007002045010008E32A00087B2900083A
:10001000E12A0008B51300081130000800000000B4
:10002000000000000000000000000000E72A0008B7
:10003000B713000800000000E52A0008E92A0008BC
:100040005F0100085F0100085F0100085F01000810
:100050005F0100085F0100085F0100085F01000800
:100060005F0100085F0100085F0100085F010008F0
:100070005F0100085F0100085F0100085F010008E0
:100080005F0100085F0100085F0100085F010008D0
:100090005F0100085F0100085F0100085F010008C0
:1000A0005F0100085F0100085F0100085F010008B0
:1000B0005F0100085F0100085F0100085F010008A0
:1000C0005F0100085F0100085F0100085F01000890
:1000D0005F010008053000085F0100085F010008AB
:1000E0005F0100085F0100085F0100085F01000870
:1000F0005F0100085F0100085F0100085F01000860
:100100005F0100085F0100085F0100085F0100084F
:100110005F0100085F0100085F0100085F0100083F
:100120005F0100085F0100085F0100085F0100082F
:10013000DFF80CD000F0F6FE0048004791400008C0
:10014000800700200648804706480047FEE7FEE794
:10015000FEE7FEE7FEE7FEE7FEE7FEE7FEE7FEE777
:100160004B2B000831010008202A04DB203A21FA39
:1001700002F00021704721FA02F3D040C2F12002C0
:100180009140084319467047D2B201E000F8012BB4
:10019000491EFBD270470022F6E710B513460A4607
:1001A00004461946FFF7F0FF204610BD30B505465E
:1001B0000020034600E05B1C934205D2EC5CC85C67
:1001C000201A01D1002CF6D130BD00000FB400B5CB
:1001D0008DB010A909900B9000914FF0FF300A905C
:1001E00000200C9005480690054807906A4609A82B
:1001F0000F9900F0E9FB0DB05DF814FBE50900086C
:10020000030A00082DE9FF5F1D464FF0FF3BD5E9CB
:10021000014691465F464FF00008A9697F1C01988E
:100220008847296A824688470028F6D1BAF1FF3FFD
:100230000CD024F4C064002E19DD600614D5BAF188
:100240002B0F09D0BAF12D0F0ED103E0584604B0A0
:10025000BDE8F09F44F48064A9697F1C0198884739
:10026000761E8246002E02DDBAF1300F03D0B9F1BE
:10027000000F26D032E0A969761E44F400747F1C7A
:10028000019888478246002E05DDBAF1780F06D026
:10029000BAF1580F03D0B9F1000F10D01EE0B9F138
:1002A000000F02D0B9F1100F18D1A969761E24F4FD
:1002B00000747F1C019888478246102002E00820C5
:1002C00000E00A20814609E008FB0908A969761EBA
:1002D00044F400747F1C019888478246002E05DD97
:1002E0004946504600F05BFB0028EDDAE9690198C9
:1002F0008847A00502D46FF00100A8E7E00725D1E8
:10030000600613D5600502D5C8F1000000E0404644
:1003100029680A1D2A600968220501D5087015E0C0
:10032000220701D5088011E008600FE02868011D50
:1003300029600068210502D580F8008006E02107C9
:1003400002D5A0F8008001E0C0F8008038467EE7C2
:100350002DE9FF4F087883B09946FF2805D0491C46
:100360002D2804D00024002008E000200BE0012408
:10037000F9E700EB800003EB4000491C0B78FF2BF2
:10038000F7D104B1404200230293147819461D4668
:100390002D2C01D02B2C04D1521C2D2C13D0002439
:1003A0000294AA461478FF2C0FD00A25A3FB0578E7
:1003B00001FB05814FF0000C03FB0C11521CE319EB
:1003C0004AEB0101EEE70124EAE7814453EA010028
:1003D00002D019F5C87F06DA03980021C0E90011A0
:1003E00007B0BDE8F08F0025AE4E2F46DFF8B8828B
:1003F000184600F042FDCDE90001B9F1000002DA33
:10040000C9F1000400E004460023A74A1AEB030BDD
:1004100042EB045A12E0E00707D02A46334638463A
:10042000414600F049FC074688462A4633461046B6
:10043000194600F041FC05460E466410002CEAD136
:10044000DDE90001B9F1000F5A46534606DA00F023
:10045000A5FC3A46434600F0A1FC05E000F02CFC68
:100460003A46434600F028FC029A0AB181F0004166
:10047000039AC2E90001B3E72DE9FF4F1F468DB093
:10048000D7E901464FF0FF382E2045464FF00009CE
:100490000B90B9696D1C0E988847396A8246884767
:1004A0000028F6D1BAF1FF3F0AD024F4D064002E20
:1004B00011DDBAF12B0F08D0BAF12D0F0BD102E0EC
:1004C000404611B08DE744F48064B9696D1C0E9804
:1004D00088478246761E6946600501D52D2000E0DA
:1004E0002B208DF8000001F1010B0DF1200809E02F
:1004F000B9696D1C0E98884782460F9844F40074C1
:10050000761E0560002E02DDBAF1300FF0D00B9997
:100510008A453ED144F0800406E00F99681CA9F199
:10052000010944F400740860B9696D1C761E0E98C8
:10053000884782463028F0D02BE00B998A4505D1B8
:10054000200603D444F08004761E18E0504602F0E2
:1005500037FF08B30DF11301761E44F400748B4588
:1005600008D2AAF130000BF8010B200607D5A9F13B
:10057000010003E0200602D409F101008146A00534
:1005800002D50F99681C0860B9696D1C0E988847E0
:100590008246002ED1DC53E0002E51DDBAF1650F0A
:1005A00002D0BAF1450F4BD1A00549D5B9696D1CF0
:1005B00024F44074761E0E9888478246002E0CDD87
:1005C0002B2804D0BAF12D0F07D144F48074B969F7
:1005D0006D1C0E9888478246761EE00501D52D21B8
:1005E00000E02B2108F8011BCDF82C8021E00DF153
:1005F0002901761E44F4007488450CD2AAF130001B
:1006000010F0FF0088F8000002D10B99884509D945
:1006100008F1010806E0E00501D5244801E042F2B6
:100620000F708146B9696D1C0E98884782460F98F5
:100630000560002E04DD504602F0C2FE0028D6D12F
:10064000F9690E988847FF208BF8000088F80000B1
:100650000020069007904B466A4608A906A8FFF7B7
:1006600077FEA00502D46FF001002AE714F0240FF2
:100670000AD0E00714D1DDE906123868031D3B609B
:100680000068C0E900120BE0DDE9060100F010F996
:100690000146E00704D13868021D3A600068016035
:1006A00028460EE7000014400000F03FF1D8FFFF9D
:1006B000F0B480EA0102D40F4200B2EB410F02D243
:1006C0000246084611464A0042D0C30DDDB2C1F3CE
:1006D000C752AD1A202D35DAC1F3160141F40002DC
:1006E00004B15242C5F1200602FA06F12A41104433
:1006F000B3EBD05F23D0C4B1012DA0EBC35009DC14
:10070000F0BC4FF0004202EAC352DBB200F5000039
:1007100000F0DFB9400000F1807000EBC350A0F1A1
:10072000807040EAD170490009E0490841EAC0718F
:10073000A0EBC35000F50000400800EBC350F0BC34
:1007400000F0BEB96142012202EB4101001BF6E755
:10075000F0BC704781F00041AAE780F00040A7E7B5
:1007600080EA010210B502F00043400022D04A00A6
:100770001FD0010E01EB1261C0F35600C2F3560206
:1007800040F4000042F40002A0FB022000047F3984
:10079000140400D0401C50EA124001D44000491E0D
:1007A000C2B20C0604EBD010401C4008802A02D0D4
:1007B00003E0002010BD20F00100002900DA002035
:1007C000184310BD30B480EA010202F0004530F059
:1007D000004221F0004013D090B1C30DD40DC2F3FC
:1007E0001601C0F31600E41A41F4000140F40002BF
:1007F0007D34914201D3641C00E04900002C02DAF0
:1008000030BC002070474FF400000023914201D318
:10081000891A034340084FEA4101F7D151B191428F
:1008200002D14FF0004105E002D24FF0010101E09A
:100830006FF0010103EBC450284430BC00F040B914
:10084000420005D0C0F3C7525242914201DC002061
:10085000704700EBC150704796230022114600F00C
:1008600038B920F00040C10DC0F3160040F400007C
:100870007F2901DA00207047962903DCC1F1960137
:10088000C840704796398840704700F0004230F009
:1008900000400AD0C10D01F56071C0F3160042EAB4
:1008A0000151C208400711437047002001467047BC
:1008B00001F0004330B421F0004150EA010206D0BB
:1008C0000A0DA2F56072C1F31301002A02DC30BCEC
:1008D00000207047440F44EAC104C100E01830BC56
:1008E00000EBC25000F0ECB8002801DBC0F1004082
:1008F000002901DBC1F1004181427047002801DB82
:10090000C0F10040002901DBC1F10041884270477D
:1009100030B50B46014600202022012409E021FACF
:1009200002F59D4205D303FA02F5491B04FA02F5CC
:100930002844151EA2F10102F1DC30BD2DE9F05F63
:100940000546002092469B4688460646814640243E
:100950001BE02846414647462246FFF705FC534622
:100960005A46C01A914110D311461846224600F04B
:10097000EBFA2D1A67EB01084F46224601200021B1
:1009800000F0E2FA17EB00094E41201EA4F1010429
:10099000DFDC484631462A464346BDE8F09F3A2808
:1009A00000D2303820F02002412A01D3A2F13700D2
:1009B000884201D34FF0FF307047000002681144B5
:1009C0001378016018467047D160044951610449A9
:1009D000116200211161114600F0DCBABD09000866
:1009E0008B0F0008426842B1016811F8013B23B146
:1009F000521EC0E90012184670470121C160881ECE
:100A0000704742685AB1C368016843B983688B4232
:100A100005D0491E521CC0E90012002070474FF05B
:100A2000FF3070470FB4002300B589B00CA90091C6
:100A30000B996FF00042CB601E4B06931E4B079341
:100A40000423CDE901321D4A089202466B4600207C
:100A5000FFF712FD09B05DF814FB70B586B00646CD
:100A60004FF0FF300091CDE90101002015460C4602
:100A700004903246694604A8FFF7D4FF0246049862
:100A8000211825B108B1084600E0204628600498E6
:100A900000280DD0002A02DD0098884208D0081BEB
:100AA0000094CDE901043246694604A8FFF7BAFF75
:100AB00006B070BDE5090008030A00088B0F0008A6
:100AC0000029A8BF7047401C490008BF20F0010062
:100AD000704710B4B0FA80FC00FA0CF050EA010440
:100AE00004BF10BC704749B1CCF1200421FA04F4D2
:100AF00011FA0CF118BF012121430843A3EB0C01AB
:100B0000CB1D4FEA00614FEA102042BF002010BC0D
:100B1000704700EBC35010440029A4BF10BC7047BD
:100B2000401C490008BF20F0010010BC704710B500
:100B300041000CD0C0F3C751962908DC7E2909DC9E
:100B400006DB410204D000F0004040F07E5010BDB2
:100B5000002010BDC1F19604C4F1200100FA01F19A
:100B6000E040FFF7ADFFA04010BD2DE9FE4F8046ED
:100B700081EA0300C00F0C46009021F0004123F0F1
:100B80000045B8EB0200A94105D2404621469046F7
:100B90001C460B46024623F00040104347D0270D69
:100BA000C7F30A00C3F30A510290401A019040288B
:100BB0006BDAC3F3130040F4801B0098924620B117
:100BC0000023D2EB030A63EB0B0B01985946C0F1EB
:100BD0004002504600F0B8F906460D4650465946C8
:100BE000019A00F0C0F910EB08006141002487EA87
:100BF000115284EAE7731A4340D0009A62B3019A13
:100C0000012A4FEA075215DC001B61EB02014FF08D
:100C1000004202EA0752CDE90042001C41F5801172
:100C200032462B4600F05BFB03B0BDE8F08F404638
:100C30002146F9E7001B61EB0201001C41F580131E
:100C400000185B412018A2F5001747EB030140EAAA
:100C5000D570B6196D4111E06D084FEA360645EAC8
:100C6000C0754FEA0752001B61EB0201001C41F501
:100C7000801149084FEA30000019514132462B4695
:100C800003B0BDE8F04F00F01BBB0098012240000C
:100C90000023D0EB020263EBE073009821464FEA99
:100CA000E074B8EB000061EB0401E9E783F0004376
:100CB0005BE781F0004158E72DE9FE4F81EA03042C
:100CC00004F0004421F0004100944FF0000B23F0A9
:100CD000004350EA01045ED052EA03045BD0C3F340
:100CE0000A54C1F30A552C44A4F2F3340194A0FB36
:100CF0000254C1F3130141F48011C3F3130343F40D
:100D0000801301FB024400FB034E840A970A44EA65
:100D1000815447EA8357A4FB076802958D0A05FBB7
:100D200007854FEA932C04FB0C542705029D4FEADC
:100D3000065847EA1637B5EB08056EEB070C870E29
:100D4000920E47EA811742EA8312A7FB0201B6EB33
:100D50000B0164EB00042B0D43EA0C335E1844EBEB
:100D60001C50DA465146E7FB0201C5F313044FEA73
:100D70000B3343EA14534FEA0432019C43EA06035F
:100D8000A4F10C040294009CCDE900B400F0A7FA91
:100D900003B0BDE8F08F00200146F9E72DE9F04DE2
:100DA00081EA030404F0004B21F0004514464FF0A3
:100DB000000A23F0004150EA050220D054EA010263
:100DC0001DD0C5F30A570246C5F31303C1F3130040
:100DD000C1F30A5640F4801543F48013A7EB0608CC
:100DE000101BD64608F2FD3873EB050002D308F15C
:100DF000010801E092185B41B8F1000F03DA00200E
:100E00000146BDE8F08D00204FF48011064684466F
:100E10000EE0171B73EB050705D3121B63EB0503ED
:100E200006434CEA010C49084FEA300092185B4136
:100E300050EA0107EDD152EA030012D082EA040021
:100E400083EA0501084305D0101BAB4106D20122FD
:100E5000002306E000224FF0004302E06FF00102A1
:100E600053101AEB06004CEB085110EB0A0041EB53
:100E70000B01BDE8F04D00F023BA0EB540F233424D
:100E800002920022CDE90022134600F028FA03B0B6
:100E900000BD00F0004220F00040C10DC0F316007C
:100EA00040F400007F2901DA00207047962903DC16
:100EB000C1F19601C84001E096398840002AF4D07B
:100EC00040427047C1F30A52C1F3130140F2FF33AD
:100ED00041F480119A4202DA00200146704740F244
:100EE00033439A42A2F2334202DC5242FFF73CB94A
:100EF00000F02AB830B5041E71F1000404DB4FF095
:100F00000044404264EB0101141E73F1000405DB50
:100F10001C464FF00043524263EB0403994208BF62
:100F2000904230BD064C074D06E0E06840F00103FA
:100F300094E8070098471034AC42F6D3FFF7FCF86A
:100F40007048000890480008202A04DB203A00FA84
:100F500002F1002070479140C2F1200320FA03F310
:100F6000194390407047202A06DBCB17203A41FAFC
:100F700002F043EAE07306E041FA02F3D040C2F126
:100F800020029140084319467047C0B24FF4F05117
:100F900000F0FCB92DE9F34F8BB04FF0000801F1E0
:100FA0000C000C464FF0010B46460DF1080A01906B
:100FB0006269012101989047051E2DD0252D2CD066
:100FC000216A8847C0B16269012101989047216A6E
:100FD00088470028F7D1411E62690198904700E0D8
:100FE000761CA1690B988847216A88470028F7D1A9
:100FF000E1690B988847DBE7A1690B9888470746AA
:10100000A84201D1761CD3E7E1690B9888477F1C81
:1010100002D1B8F1000F6FD046E1002762693D466A
:101020003946019890472A2804D162690121019824
:1010300090470125DFF88492626901210198904769
:10104000A0F130010A290AD24F45E5DC07EB870100
:1010500000EB4107303FDFD445F01005ECE7E9062F
:1010600001D46FF000476C280AD04C2814D06828AF
:1010700015D06A280DD074281CD07A281AD01DE00B
:1010800062690121019890476C2802D045F004055F
:1010900014E045F002050DE045F020050AE0626924
:1010A000012101989047682802D045F0080505E025
:1010B00045F400656269012101989047C4E9015730
:1010C00065283DD019DC58287AD00CDC452837D06B
:1010D00004DC252826D0412831D131E046282FD004
:1010E00047282CD12CE05B2877D0612828D06328B2
:1010F0007CD0642823D15AE0D0E06F2848D008DCA7
:1011000066281DD067281BD0692821D06E2816D1EB
:1011100027E0702845D0732868D0752847D07828F4
:101120000DD14DE0A1690B988847054625283FF46D
:1011300069AFE1690B9888476D1C3FF46AAFB3E073
:1011400023466A466FF001000B99FFF795F99EE080
:1011500045F040006060A80723464FF0000236D4F7
:101160003EE0E8077FF447AF2068011D216000687A
:10117000290501D506701BE7290701D5068017E769
:10118000A90703D5F117C0E9006111E706600FE771
:1011900045F040006060A80723464FF0080216D4CF
:1011A0001EE040F60E0125EA0100606016E045F001
:1011B00040006060A80723464FF00A0207D40FE002
:1011C00045F040006060A80708D5234610226FF064
:1011D00001000B99AFF3008059E007E0234610228D
:1011E0006FF001000B99FFF70DF850E04FF0000988
:1011F0004F464B46632802D05B2806D040E0E80605
:1012000001D40120A06001273AE062690121019820
:1012100090475E2805D14FF001096269494601985F
:101220009047216939B900210A46534643F82120E5
:10123000491C0829FADBB0B3216969B9C11700EB71
:10124000D16253110AEB830122F01F02821A01209E
:101250000B68904003430B6062690121019890473D
:101260005D28E8D1B9F1000F09D00020514651F8AE
:101270002020D24341F82020401C0828F7DB02AB95
:10128000224600976FF001000B99AFF30080002811
:101290000CDA401C08D1BBF1000F05D04FF0FF3035
:1012A0000DB0BDE8F08FFFE74046F9E7E90701D14F
:1012B00008F1010806444FF0000B79E6CCCCCC0CC9
:1012C00010B5141E73F1000408DA401C41F100014E
:1012D00092185B411A4301D120F0010010BD2DE9A5
:1012E000F04D92469B4611B1B1FA81F202E0B0FA9C
:1012F00080F220329046FFF727FE04460F4640EA70
:101300000A0041EA0B0153465A46084313D01146DE
:1013100053EA010019D0C8F140025046FEF724FFFD
:1013200005460E46504659464246FFF70DFE084315
:1013300005D0012004E020463946BDE8F08D0020AC
:10134000054346EAE0762C4337430A986305E40AEE
:10135000A0EB08000022FD0A44EA47540A3002D5F7
:1013600000200146E9E7010510196941DDE908455A
:1013700000196941BDE8F04DA2E7C10F80EAE070B5
:101380000844CA0796230021FFF7A3BB7F2801D991
:10139000002208E0064A02EB5002C007127800D192
:1013A000120902F00F02012090400840704700002F
:1013B000A0470008FEE7704710B590F82110002202
:1013C000022905D00421816380F82020012010BD6E
:1013D00001680B6823F00E030B6001680B6823F0B3
:1013E00001030B6090F84030C46B012101FA03F354
:1013F000636080F8211080F82020104610BD0000A6
:101400002DE9F05F90F821100024022903D0042177
:101410008163012485E001680A6822F00E020A60F7
:1014200001680A6822F001020A603F4E3E4FB21581
:10143000DFF8F4C0DFF8F090DFF8ECA0DFF8E8B0F8
:10144000DFF8E4E00168783F13011502ACF1640CA9
:10145000A9F15009AAF13C0AABF1280BAEF1140E28
:101460004FF48018B14227D9B9420ED0614512D04D
:1014700049451DD0514518D0594518D0714501D165
:10148000424615E0294EB14201D1012210E0274E1B
:101490001436B14201D110220AE0244E2836B1425E
:1014A00006D0224A3C32914201D11A4600E02A4637
:1014B0001E49091F0A602BE0B94213D0614517D0BD
:1014C000494522D051451DD059451DD0714501D106
:1014D00042461AE0B14202D14FF0807215E0134E3D
:1014E000B14201D1012210E0104E1436B14201D1B7
:1014F00010220AE00D4E2836B14206D00B4A3C328B
:10150000914201D11A4600E02A46074980394A60D3
:10151000012180F82110002180F82010416B01B1D9
:1015200088472046BDE8F09F800002400804024042
:101530002DE9F84FDFF8C8910024A9F1040B2346E8
:101540000F2709F1040AABF1040ED1E00125A540F3
:1015500006EA0502AA4276D1DFF8A8C14E68A6EBDA
:101560000C0866452BD00DDC032E34D005DC36B3D9
:10157000012E19D0022E2FD11BE0112E16D0122EC3
:101580002AD119E0B8F5881F19D006DCB8F5803FDC
:1015900015D0B8F5801F1FD111E0B8F5001F0ED08F
:1015A000B8F5041F18D10AE0CB6815E0CB681B1D05
:1015B00012E0CB6808330FE0CB680C330CE08B688B
:1015C0002BB1012B4FF0080303D0456104E0042345
:1015D00002E0056100E00023FF2A01D8064601E091
:1015E00000F104064FEA840501D9A5F12005D6F8DB
:1015F000008007FA05FC28EA0C0803FA05F548EA1A
:101600000508C6F800804D68ED0070D53E4DAE6906
:1016100046F00106AE61AD6924F0030605F0010550
:1016200000953A4D06EB050CDCF80850A607360F7E
:1016300007FA06F825EA0805DFF8D480404503D10B
:101640004FF0000825E052E0DFF8C880404502D1A5
:101650004FF001081DE0DFF8C080404502D14FF097
:10166000020816E0DFF8B480404502D14FF00308CD
:101670000FE0DFF8AC80404502D14FF0040808E0ED
:10168000DFF8A080404502D14FF0050801E04FF09F
:10169000060808FA06F848EA0508CCF808804D68FC
:1016A000D9F80060ED024D4601D5164300E096439F
:1016B0002E604D68DAF80060AD02554601D516433C
:1016C00000E096432E604D68DBF80060AD035D4698
:1016D00001D5164300E096432E604D68DEF80060A9
:1016E000ED03754601D5164300E096432E60641C59
:1016F0000A681646E2407FF429AFBDE8F88F000083
:1017000008040140000011100010024000000140D8
:1017100000080140000C014000100140001401408D
:1017200000180140001C0140C26821EA02030A407F
:1017300043EA0241016170470AB10161704709043F
:10174000FBE7000001488068704700004800002067
:101750000248816802781144816070474800002087
:10176000074810B5016841F010010160032000F046
:1017700075F80F2000F006F800F024F8002010BDE6
:101780000020024070B50D4D04464FF47A71287860
:10179000B1FBF0F00A490968B1FBF0F000F0DCFAA7
:1017A00048B9102C07D200222146501E00F036F80E
:1017B00000206C6070BD012070BD0000480000205A
:1017C000400000200C4808B5816941F001018161A9
:1017D000816901F001010091C16941F08051C1614D
:1017E000C06900F0805000900448416821F0E06139
:1017F00041F00071416008BD00100240000001404E
:10180000002809DB00F01F020121914040098000FF
:1018100000F1E020C0F8001170470000F0B40E4B5A
:101820001B680C46C3F30223C3F10705042D00D93E
:101830000425191D072901D2002300E0DB1E012623
:1018400006FA05F1491E214099409E40761E164039
:101850003143F0BC01F001BC0CED00E0064900F0A2
:10186000070208684FF6FF03184040EA0220034AC7
:1018700010430860704700000CED00E00000FA051E
:101880002DE9F0470F46050061D0434E306800F067
:101890000700B84209D2306820F0070038433060B2
:1018A000306800F00700B84251D128683B4C8107EE
:1018B00012D5400703D5606840F4E0606060287886
:1018C000000703D5606840F4605060606068A968F4
:1018D00020F0F000084360602878C00728D06868CE
:1018E000012810D02168022810D0890700292EDA9B
:1018F000616821F0030101436160FFF723FF804627
:1019000041F288390DE021688903EFE78901EDE7AD
:10191000FFF718FFA0EB0801494502D90320BDE8F5
:10192000F0876068696800F00C00B0EB810FEFD1C0
:10193000306800F00700B8420BD9306820F007008B
:1019400038433060306800F00700B84201D0012011
:10195000E5E72878400705D56068E96820F4E0608D
:10196000084360602878000706D56068296920F47C
:10197000605040EAC100606000F038F86168084AD1
:10198000C1F30311515CC84006490860064800686D
:10199000FFF7F8FE0020C2E70020024000100240DE
:1019A00024470008400000204C000020044805495E
:1019B00000684968044AC1F30221515CC84070477D
:1019C0004000002000100240344700080448054948
:1019D00000684968044AC1F3C221515CC84070479D
:1019E0004000002000100240344700080E4A5168B1
:1019F0000E4801F00C03042B11D0082B0FD10C481A
:101A0000C1F38343C903C05C0AD55168084AC1F3D6
:101A10004041921E515C054A5043B0FBF1F07047C3
:101A200004494843704700000010024000127A0049
:101A30003E47000800093D002DE9F84F040070D032
:101A40002078C04DC00749D06868C0F381000128E4
:101A500007D06868C0F38100022809D16868C00314
:101A600006D52868800339D560680028E7D035E0BE
:101A70006068B0F5803F0BD010B1B0F5A02F11D049
:101A8000286820F480302860286820F4802002E054
:101A9000286840F480302860606890B1FFF752FEFB
:101AA00006460AE0286840F480202860F0E700BF7E
:101AB000FFF748FE801B642873D828688003F7D599
:101AC0000CE0FFF73FFE064605E000BFFFF73AFED9
:101AD000801B6428F0D828688003F7D420789A4EB9
:101AE00080074FF001094FF0000839D5686810F001
:101AF0000C0F07D06868C0F38100022809D168681C
:101B0000C00306D42868800714D52069012808D1AD
:101B100010E02069B0B1C6F80090FFF713FE074649
:101B200005E00AE1FFF70EFEC01B0228C4D82868B2
:101B30008007F7D52868616920F0F80040EAC10005
:101B400028600DE0C6F80080FFF7FCFD074604E0C2
:101B5000FFF7F8FDC01B022823D828688007F7D4B8
:101B6000207800072CD57948A169D9B1C0F8009038
:101B7000FFF7E8FD074604E0FFF7E4FDC01B02287D
:101B80000FD8686A8007F7D571484FF4FA5100689A
:101B9000B0FBF1F0009000BF0098411E0091FAD216
:101BA0000EE080E0C0F80080FFF7CCFD074604E0BF
:101BB000FFF7C8FDC01B022875D8686A8007F7D4F4
:101BC0002078400760D5E8690027C00008D4E8699C
:101BD00040F08050E861E869012700F080500090F3
:101BE0005C480168C90513D40168834641F48071DB
:101BF0000160FFF7A7FD824606E000BFFFF7A2FDE8
:101C0000A0EB0A0064284ED8DBF80000C005F5D52B
:101C1000E06801280AD008B1052813D0286A20F00E
:101C200001002862286A20F0040002E0286A40F0DF
:101C300001002862E06841F2883B98B1FFF782FD1D
:101C400082460BE0286A40F004002862EEE700BFFD
:101C5000FFF778FDA0EB0A0159455AD8286A80079A
:101C6000F6D50CE0FFF76EFD824605E0FFF76AFD52
:101C7000A0EB0A0159454CD8286A8007F6D41FB159
:101C8000E86920F08050E861E06988B36968C1F3D1
:101C90008101022944D00228C6F8608004D0FFF7F1
:101CA00051FD044638E034E0FFF74CFD074604E000
:101CB000FFF748FDC01B02282BD828688001F7D405
:101CC000206AB0F5803F05D16868A16820F4003033
:101CD00008436860D4E908010843696821F4741175
:101CE00008436860C6F86090FFF72CFD044606E0E4
:101CF00025E000BFFFF726FD001B022809D8286851
:101D00008001F7D51BE000BFFFF71CFD001B022878
:101D100002D90320BDE8F88F28688001F4D40EE0D2
:101D20000128F7D06868226A00F48031914204D11A
:101D3000616A00F47010884201D00120EAE70020B7
:101D4000E8E70000001002400000424280044242E6
:101D5000400000200070004010B5401EB0F1807FB0
:101D600001D3012010BD4FF0E02460610F21601706
:101D700001F073F90020A06107202061002010BD50
:101D800010B590F83C20012A22D0012280F83C2096
:101D9000CA688C6822F4407222434C6822F4806244
:101DA00022430C6822F4006222430C6922F4805220
:101DB00022434C6922F400522243C969002322F4D1
:101DC00080420A4301684A6480F83C30002010BD1C
:101DD000022010BD70B590F83C20012A2CD00124BF
:101DE00080F83C40022280F83D2003685A689D68D4
:101DF00022F070060A6832435A60104B02689A4219
:101E00000ED00F4B9A420BD0B2F1804F08D00D4B41
:101E10009A4205D00C4B9A4202D00C4B9A4204D104
:101E2000496825F080031943916080F83D40002106
:101E300080F83C10084670BD022070BD002C0140A7
:101E4000003401400004004000080040000C004045
:101E500010B5040003D094F83D0010B107E0012054
:101E600010BD002084F83C00204600F01FF802203E
:101E700084F83D00211D206800F068FE012084F8F0
:101E8000460084F83E0084F83F0084F8400084F85F
:101E9000410084F8420084F8430084F8440084F848
:101EA000450084F83D00002010BD000008B5006822
:101EB0000649884208D10648816941F40061816180
:101EC000806900F40060009008BD0000002C014013
:101ED0000010024070B5044690F83C00002501282F
:101EE00017D0012684F83C60022084F83D00206869
:101EF000826822F0770222F47F42826008685028CC
:101F000038D00DDC20284FD005DC90B3102811D13B
:101F10004AE0022070BD302846D040280AD13BE07C
:101F200060282FD070280DD0B0F5805F03D0B0F5B9
:101F3000005F12D0012584F83D60002084F83C0049
:101F4000284670BDCB68D1E90121206800F059FE18
:101F50002068816841F0770109E0CB68D1E901216F
:101F6000206800F04EFE2068816841F48041816065
:101F7000E1E719E0CA684968206800F017FF5021BE
:101F8000206806E0CA684968206800F020FF6021E8
:101F9000206800F040FECEE7CA684968206800F07B
:101FA00005FF40212068F4E7226801461046F0E76B
:101FB00000B585B000210091019102910391006864
:101FC0000B49884212D10B48816941F004018161BB
:101FD0008069694600F0040004904FF4807000901E
:101FE0000220019003900448FFF7A2FA05B000BD5B
:101FF000002C0140001002400008014070B504466A
:1020000090F83C0000260D4601280FD0012084F8EE
:102010003C006AB1042A1DD0082A2FD00C2A3FD0D8
:102020000126002084F83C00304670BD022070BDBF
:10203000206800F0F9FD2068816941F008018161A4
:102040002068816921F004018161206881692A6921
:10205000114311E0206800F017FE2068816941F407
:10206000006181612068816921F48061816120685B
:1020700081692A6941EA02218161D2E7206800F082
:1020800039FE2068C16941F00801C1612068C16959
:1020900021F00401C1612068C1692A69114311E07E
:1020A000206800F05BFE2068C16941F40061C161F5
:1020B0002068C16921F48061C1612068C1692A6911
:1020C00041EA0221C161ACE710B5040003D094F8E5
:1020D0003D0010B107E0012010BD002084F83C0055
:1020E000204600F01EF8022084F83D00211D2068E3
:1020F00000F02CFD012084F8460084F83E0084F8AE
:102100003F0084F8400084F8410084F8420084F8DD
:10211000430084F8440084F8450084F83D00002022
:1021200010BD704710B50446022249B104290ED0F3
:10213000082913D094F84100012816D0012010BDC1
:1021400094F83E000128F9D184F83E200FE094F87D
:102150003F000128F2D184F83F2008E094F84000C5
:102160000128EBD184F8402001E084F841200122CD
:10217000206800F039FD13492068134A884201D0D5
:10218000904203D1436C43F4004343642068884287
:102190000DD090420BD0B0F1804F08D00B4988424F
:1021A00005D00B49884202D00A49884204D181688F
:1021B00001F00701062903D0016841F00101016027
:1021C000002010BD002C01400034014000040040FC
:1021D00000080040000C004030B504460D46006881
:1021E000002200F001FD194B41F2111120688A1004
:1021F000984202D0164B984209D1036A0B4206D18D
:10220000036A134203D1436C23F400434364206800
:10221000036A0B4206D1016A114203D1016821F021
:102220000101016001203DB1042D08D0082D09D025
:1022300084F84100002030BD84F83E00FAE784F8BD
:102240003F00F7E784F84000F4E70000002C01406D
:10225000003401407047000008B5016800220B6897
:102260004B6800930B684B6800930B684B680093B6
:102270000B6849680091104988420ED10F484FF40D
:10228000007102700E48FDF786FF0C490122491CBF
:10229000094800F0FDF90BA009E0104988420AD175
:1022A00006490122891C0D4800F0F2F90CA0BDE896
:1022B000084000F0AFBE08BDA00000204400002090
:1022C0007C01002054656E73696F6E557361727482
:1022D000206572726F72210A00000000E800002081
:1022E0004D6F746F725573617274206572726F7284
:1022F000210A0000F8B5016804460868CA684B69FD
:1023000010F00F0F4FF0000559D003F0010602F452
:102310009077374365D0C10705D0D10503D5616CEF
:1023200041F001016164410705D5D90703D0616C13
:1023300041F002016164810705D5D90703D0616CC2
:1023400041F004016164010707D502F02001314327
:1023500003D0616C41F008016164616C00293AD0DE
:10236000800604D5900602D5204600F071FD206855
:102370004069616CC0F38010090700D460B3204647
:1023800000F03FFD20684069400621D520681430E8
:1023900050E8001F21F0400140E80012002AF5D16A
:1023A000E06BA8B16D494163E06BFFF729F80028A5
:1023B00011D0E06B416B01B0BDE8F04008478306E7
:1023C0000FD593060DD52046BDE8F84000F040BD7E
:1023D0002046FFF741FFF8BD2046FFF73DFF65644B
:1023E000F8BD266B2023012E7CD1C6067AD5D606F1
:1023F00078D508684868009048694FF002064006A2
:1024000040D5E16B086840680004000CE8D0A28D5C
:102410008242E5D9E085886920282DD020680C30DB
:1024200050E8001F21F4807140E80012002AF5D125
:102430002068143050E8001F21F0010140E800122C
:10244000002AF5D12068143050E8001F21F0400127
:1024500040E80012002AF5D184F842302563206854
:102460000C3050E8001F21F0100140E80012002A53
:10247000F5D1E06BFEF7A0FF6663A08DE18D401AF9
:1024800081B22AE0A08DE18D401A81B2E08D002852
:10249000A6D00029A4D022680C3252E8000F20F404
:1024A000907042E80007002FF5D12068143050E802
:1024B000002F22F0010240E80027002FF5D184F818
:1024C0004230256320680C3050E8002F22F01002C3
:1024D00040E80023002BF5D166632046FFF7BAFEE3
:1024E000F8BDFFE705062BD5150629D594F8410060
:1024F0002128F5D1A068B0F5805F01D12069B0B185
:10250000206A411C2162216800784860E08C401EEE
:102510000004000CE084E3D12068C16821F0800150
:10252000C1602068C16841F04001C160D8E7206AFD
:102530000088C0F308004860206A801C2062E5E73C
:102540004006CDD55006CBD5CA68204622F04002C1
:10255000CA6084F8413000F00FFAC1E7F32D00089B
:1025600070B5040004D094F84100002510B106E0D5
:10257000012070BD84F84050204600F023F824204C
:1025800084F841002068C16821F40051C1602046F0
:1025900000F0C0FC2068016921F4904101612068CD
:1025A000416921F02A0141612068C16841F400516C
:1025B000C1606564202084F8410084F842006563AE
:1025C000002070BD70B586B0002400940194029480
:1025D00003942B4E03682B49022003222A4DB34259
:1025E00029D18B6943F480438B618B6903F4804369
:1025F00004938B6943F004038B618969039201F0B2
:10260000040104910102CDE9001069462846FEF755
:102610008FFF2815CDE90004694628460294FEF78D
:1026200087FF002211462520FFF7F8F82520FFF745
:10263000E7F806B070BD154EB342FAD1CB6943F44A
:102640000033CB61CB6903F4003304938B6943F00F
:1026500004038B618969039201F004010491042150
:10266000CDE9001069462846FEF762FF0820CDE953
:102670000004694628460294FEF75AFFD9E7000095
:1026800000380140001002400008014000440040B2
:1026900090F84230202B01D00220704721B11AB1AE
:1026A0000023036300F092BC012070472DE9F0473E
:1026B0006D4988B088426DD16C4C617820466C4D74
:1026C00000780A290FD061780D2903D06178295448
:1026D000401C207008B06549BDE8F0470122491C44
:1026E0006148FFF7D5BF00262E54042261A160483F
:1026F000FDF75CFD002839D0072260A15C48FDF79A
:1027000055FD00283FD008225EA15948FDF74EFD37
:1027100000283BD006225EA15548FDF747FD002862
:102720003AD007225CA15248FDF740FD88B304224D
:102730005BA14F48FDF73AFD68B301225AA14C480E
:10274000FDF734FD594D00283DD0032258A14848DB
:10275000FDF72CFD00284CD0072256A14448FDF778
:1027600025FD002868D0424954A06FE0E078012898
:1027700001D058482AE0281D01F0DDF9FEF798F84D
:1027800001F014FA64E001F01FFC61E001F0E8F9E7
:102790005EE004E065E005E001F048FB58E001F090
:1027A0002FFB55E0E078002852D103A8009002AB3F
:1027B00001AA49A12E48FDF709FD01AB93E80700E6
:1027C00001F04EFD44E0E07818B1474800F022FCEB
:1027D0003EE06A4645A126480096FDF7F7FC0098C2
:1027E000E861FEF752F802460B4642A000F012FCE8
:1027F0002EE006A8009005AB04AA44A11C48FDF7F2
:10280000E5FC04982860059F82466F600698A860E2
:10281000FEF73BF8804689463846FEF736F805460F
:102820000F465046FEF731F88DE8A00302460B46EE
:102830003AA000F0EFFB0BE00C4A41A1D21C0C487F
:10284000FDF7C4FCE07850B141A143A000F0E2FBE9
:1028500026704FF400710648FDF79DFC3AE744A14D
:10286000F3E708B0BDE8F087A00000204400002096
:102870007C010020436F6E2000000000466F7277DD
:10288000617264004261636B7761726400000000F2
:10289000456E61626C65000044697361626C65003D
:1028A0004461746100000000460000001C0000202C
:1028B00070696400436F6E4D6F646500556E6B6E9A
:1028C0006F776E20636F6D6D616E643A2025730AB9
:1028D000000000002848000844617461202566203B
:1028E0002566202566000000E04700084620256692
:1028F0000000000053657420466F726365207461A8
:10290000726765743A252E32660A00007069642089
:10291000256620256620256600000000536574208A
:102920005049443A204B703D252E3466204B693D7A
:10293000252E3466204B643D252E34660A000000A7
:10294000436F6E4D6F646520256868750000000058
:10295000537065656400000053657420436F6E74A6
:10296000726F6C204D6F64653A25730A0000000099
:10297000466F7263650000007047FEE72DE9F04185
:1029800086B0002000900190029003901E4881695B
:1029900041F010018161816901F0100104918169A8
:1029A00041F020018161816901F020010491816978
:1029B00041F0040181618069144F00F0040004902B
:1029C000002240213846FEF7B7FEDFF844804FF47E
:1029D000C056002231464046FEF7AEFE402001249C
:1029E00002258DE83100694638460395FEF7A0FDC3
:1029F000CDE9006469464046CDE90245FEF798FD01
:102A000006B0BDE8F0810000001002400010014057
:102A10000008014010B596B000240F941094119452
:102A2000129413941C2108A81494FDF7B4FB2021E0
:102A30006846FDF7B0FB29482749016040F2CF21E5
:102A4000C0E901146321C0E903148021C0E90541F4
:102A5000FFF7FEF908B172B6FEE74FF480500F9011
:102A60000FA91E48FFF736FA08B172B6FEE71B48F9
:102A7000FFF72AFB08B172B6FEE7139413A91748B3
:102A80001494FFF7A7F908B172B6FEE7602008902A
:102A90003220CDE909040B940C940D94002208A96E
:102AA0000E480E94FFF7AAFA08B172B6FEE700943A
:102AB0004FF40050CDE90440029401940394694618
:102AC00006480794FFF75CF908B172B6FEE70348C1
:102AD000FFF76EFA16B010BD002C01405800002020
:102AE000FEE7FEE770477047FEF732BE30B58FB0A5
:102AF00028216846FDF74FFB14210AA8FDF74BFB80
:102B000001210804CDE9001000240294022504915B
:102B1000CDE907504FF4E01009906846FEF78CFFAE
:102B200008B172B6FEE70F20CDE90A054FF48060C8
:102B3000CDE90C4002210AA80E94FEF7A1FE002860
:102B400001D072B6FEE70FB030BD7047F0B5026835
:102B5000204C214D214E224F224B4FF0804CA04261
:102B600009D0984207D0604505D0A84203D0B042B2
:102B700001D0B84204D122F0700E4A6842EA0E0237
:102B8000A04209D0984207D0604505D0A84203D0A2
:102B9000B04201D0B84203D122F44075CA682A433A
:102BA0004D6922F080022A4302608A68C2620A6884
:102BB0008262A04201D0984201D1096901630121DA
:102BC00041610169C90703D0016921F00101016177
:102BD000F0BD0000002C014000040040000800404F
:102BE000000C00400034014010B501F01F0301212A
:102BF000046A99408C430462016A9A40114301625D
:102C000010BD10B5846842EA032224F47F440A43CD
:102C10002243826010BD826822F070020A4342F0B3
:102C20000701816070470000F0B5036A026A22F074
:102C30000102026242688469124E24F073050C6836
:102C40002C4323F002058B682B430D4DA84201D085
:102C5000B04205D123F00807CB683B4323F00403BF
:102C6000A84201D0B04205D14D6922F4407215430B
:102C70008A692A4342608461496841630362F0BD06
:102C8000002C014000340140F0B5026A036A23F0D1
:102C900010030362436884690D6824F4E64444EA3F
:102CA00005248D6822F0200242EA05120F4D104ED5
:102CB000A84201D0B04206D1CF6822F0800242EA99
:102CC000071222F04002A84201D0B04207D14D695C
:102CD00023F4406343EA85038D6943EA8503436037
:102CE0008461496881630262F0BD0000002C0140EC
:102CF00000340140F0B5026A036A23F48073036272
:102D00004368C46922F4007224F073050C68124E03
:102D10002C438D6842EA05220E4DA84201D0B042F4
:102D200006D1CF6822F4006242EA072222F48062D0
:102D3000A84201D0B04207D14D6923F4405343EA81
:102D400005138D6943EA05134360C4614968C16393
:102D50000262F0BD002C01400034014030B5046A2D
:102D6000026A22F4805202624268C3690D6823F449
:102D7000E64343EA05238D6824F4005444EA05340D
:102D8000084DA84202D0084DA84204D14D6922F452
:102D9000804242EA85124260C3614968016404626C
:102DA00030BD0000002C01400034014010B5036A22
:102DB000046A24F001040462846924F0F00444EA03
:102DC000021423F00A020A438461026210BD10B5A6
:102DD000036A046A24F010040462846923F0A003E7
:102DE00024F4704444EA023243EA01118261016230
:102DF00010BD10B5406A0021C185C184FFF72CFACF
:102E000010BD01680C3151E8002F22F4907241E8A6
:102E10000023002BF5D10168143151E8002F22F076
:102E2000010241E80023002BF5D1016B012909D1F2
:102E300001680C3151E8002F22F0100241E8002314
:102E4000002BF5D1202180F842100021016370474A
:102E500008B590F84210222901D0022008BD8268EE
:102E60004FF480539A4201D1016921B1816A9A429B
:102E70001BD04AB10AE00268816A5268C2F30802B4
:102E80000A80816A891C08E0026972B1026852688E
:102E900002F07F020A70816A491C8162C18D491E5D
:102EA0000904090CC18503D01BE002685268F1E7F0
:102EB0000168CA6822F02002CA600168CA6822F468
:102EC0008072CA6001684A6922F001024A612021C9
:102ED00080F8421000214163026B012A03D0FFF702
:102EE000E5FB002008BD016301680C3151E8002FAB
:102EF00022F0100241E80023002BF5D101680A6896
:102F0000D20602D50A6849680091818DFFF7A2F9BF
:102F1000E7E7000070B5044600680169E26821F443
:102F20004051114301612169A06808436169084368
:102F30002168CA6841F20C639A430243CA60206860
:102F40004169A26921F44071114341611E49206821
:102F5000884202D1FEF73AFD01E0FEF727FD00EBC3
:102F6000C00101EB0012606864218000B2FBF0F345
:102F7000B3FBF1F36FF018067343B2FBF0F5B2FB4D
:102F8000F0F605EB8305322303EB0515B5FBF1F5F0
:102F9000B6FBF1F605F0F00505EB0615B2FBF0F611
:102FA000B2FBF0F0B0FBF1F06FF01802504306EB0B
:102FB000800003EB0010B0FBF1F0216800F00F007F
:102FC0002844886070BD000000380140816282851D
:102FD000C28500214164222180F84210016921B19B
:102FE0000168CA6842F48072CA6001684A6942F0A6
:102FF00001024A610068C16841F02001C1600020FF
:10300000704700000148FFF775B90000A0000020DC
:10301000FEE700000FB4054B10B503A9044A02985F
:1030200000F0D6F910BC5DF814FB0000F13F000879
:103030003C0000204100080218BF04200A0E18BFFF
:1030400040F001004FF07F4232EA010108BF40F03A
:103050000200012808BF052070470907090E002853
:1030600004DB00F1E02080F80014704700F00F004E
:1030700000F1E02080F8141D70470121FDF7E0BB4E
:1030800000210846FDF79EBB61214FF0E040FDF7AF
:10309000D7BB6FF05E010807FDF7D2BB2DE9F04DFD
:1030A0000D4614464FF07F41B1EB440F9EBF4FF0E9
:1030B000FF312960BDE8F08D4FF0004040EA042167
:1030C000C4F3C750783810F01F024A4B4FEA601C17
:1030D000C2F120067B44C4F3C750A0F178004FEA48
:1030E000601003EB800053F82C3008BFD0E901C614
:1030F00012D0D0F804C093402CFA06F73B438768FF
:103100000CFA02FC27FA06F8C06807FA02F2F0404F
:103110004CEA080C42EA0006A3FB0132ACFB01C0FA
:10312000A6FB016101EB0C068E4234BF4FF0010C8F
:103130004FF0000CC1186144BCF1000F02D0814275
:1031400002D903E0814201D2012000E000201044B6
:1031500000F120024FEA92188006CA0C40EA423081
:103160004F03C5F80080FEF708F982463846FDF7A0
:1031700073FB6FF01201FDF763FB07463046FDF766
:103180006BFB6FF02501FDF75BFB8346394650462C
:10319000FDF78EFA5946FDF78BFA00F500666FF3DE
:1031A0000B0651463046FDF7D5FA3946FDF7D2FAFF
:1031B0005946FDF7D2FA1049FDF7D2FA07460F49F2
:1031C0003046FDF7CDFA3946FDF772FA07460C494D
:1031D0003046FDF7C5FA3946FDF76AFA14F0004F9C
:1031E00008BFBDE8F08DC8F1805180F00040296033
:1031F000BDE8F08DA8160000DB0FC92F22AAFD291B
:103200000000C92F014800687047000054000020EA
:1032100002E008C8121F08C1002AFAD1704770479F
:10322000002001E001C1121F002AFBD170470000FD
:103230000149086070470000540000202DE9FF5F3D
:1032400082B00021DDE90430020DDDF840B0034317
:1032500018D044F61050A2F2FF32424315141198D0
:1032600001281FD0A5EB0B00401C5FEA000A4FF0BD
:1032700000064E4FDFF83891B046504615D5CAF1DA
:10328000000413E0119801244AA3012801D16FEA38
:103290000B010298119AC0E90031C0E9024206B060
:1032A000BDE8F09FCBF10000DFE704460021404A73
:1032B000491842EB0450CDE9001012E0E00707D0B6
:1032C00032463B4640464946FDF7F6FC8046894675
:1032D00032463B4610461946FDF7EEFC06460F46C1
:1032E0006410002CEAD1DDE90401DDE90023BAF124
:1032F000000F06DAFDF7E0FC42464B46FDF7DCFC2A
:1033000005E0FDF74BFD42464B46FDF747FD044601
:103310000E460022284BFDF7EDFD03D84FF0FF309D
:10332000014607E00022254B20463146FDF71DFCF3
:10333000FDF7C8FD102409E0002C0ADB0A22002357
:10334000FDF7FCFA039B30321A55641E50EA010265
:10335000F2D1641C039AC4F111031444119A012A96
:1033600003D0012208430DD10AE0084304D0002015
:103370004FF0110B119072E7A3EB0B056D1E0DE0E2
:103380005B4504DD4FF0000205F1010504E003DABE
:103390004FF00002A5F10105002AECD00298119926
:1033A000C0E90231C0E9004579E70000000014409F
:1033B0000000F03F300000000000F0430000E03F5C
:1033C00030380A2801D201207047002070470000E1
:1033D0002DE9FF4F95B09B468946064600250FE232
:1033E000252877D100242746F84A0121059400E0DA
:1033F000044316F8013F203B01FA03F01042F7D1D5
:1034000030782A2811D06FF02F033078A0F13002E5
:10341000092A16D8059A44F0020402EB820203EB53
:1034200042021044761C0590EFE759F8042B0592F0
:10343000002A03DA504244F40054059044F0020498
:10344000761C30782E2816D116F8010F44F00404AB
:103450002A280DD06FF02F023078A0F13003092B0D
:1034600009D807EB870302EB4303C718761CF3E781
:1034700059F8047B761C30786C280FD006DC4C2879
:1034800017D068280DD06A2814D104E0742810D011
:103490007A280FD10DE044F400140AE044F48014BB
:1034A00001E044F440147278824202D104F58014A1
:1034B000761C761C307866280BD013DC582877D021
:1034C00009DC002875D04528F6D04628F4D04728D6
:1034D0001AD19DE118E0632835D0642879D0652899
:1034E00012D195E1702873D008DC6728F1D06928E3
:1034F0006FD06E280DD06F2806D1B5E073282CD080
:10350000752875D0782874D05A46179990476D1C45
:1035100075E1C4F30250022809D003280DD0D9F870
:10352000001004280DD00D6009F1040967E1D9F8F5
:103530000010EA17C1E90052F6E7D9F800100D8033
:10354000F2E70D70F0E719F8041B8DF80010002069
:103550008DF80100EA46012003E059F804AB4FF072
:10356000FF3061074FF0000102D40DE008F10101C6
:103570008846B9420FDA8045F8DB1AF808100029AE
:10358000F4D108E008F1010188468142FADB1AF81B
:1035900008100029F6D105985B46A0EB08072146E4
:1035A0003846179A00F094FA284400EB080507E023
:1035B0004DE029E10DE01AF8010B5A4617999047A2
:1035C000B8F10108F7D25B4621463846179A13E155
:1035D00042E00A220092C4F302524FF0000A022A8B
:1035E00008D059F804CB032A4FEAEC710AD00DE059
:1035F00029E02AE009F1070121F00702F2E802C1FF
:10360000914609E00FFA8CFC4FEAEC71042A03D1D1
:103610004FFA8CFC4FEAEC71002907DA0A460021C8
:10362000DCF1000C61EB02012D2202E0220504D541
:103630002B228DF80420012203E0E20701D0202292
:10364000F7E7904659E00A2102E010220DE0102130
:103650004FF0000A00910BE010224FF0000A44F0F6
:1036600004040827009203E008224FF0000A0092A9
:10367000C4F30252022A05D059F804CB0021032AD0
:1036800008D009E009F1070121F00702F2E802C1C0
:10369000914605E01FFA8CFC042A01D10CF0FF0CC6
:1036A0004FF00008220728D5702806D0009B83F031
:1036B000100353EA0A0305D00EE040228DF80420DF
:1036C000012208E05CEA010206D030228DF80420D5
:1036D0008DF8050002229046009B83F0080353EA10
:1036E0000A030AD15CEA010201D1620705D5302242
:1036F0008DF804204FF001087F1E582804D034A014
:1037000003900EA802900DE036A0F9E753466046FC
:10371000009AFDF713F984460398825C0298401ED4
:10372000029002705CEA0100F0D1029806A9081A22
:1037300000F1200A600702D524F4803400E001275C
:10374000574502DDA7EB0A0000E0002000EB0A016C
:10375000009005984144401A0590E00306D45B466A
:103760002146179A059800F0B3F90544002706E0B2
:1037700001A85A46C05D179990476D1C7F1C4745AC
:10378000F6DBE0030CD55B462146179A059800F05E
:103790009FF9054404E030205A46179990476D1C64
:1037A0000099481E00900029F5DC08E00298029973
:1037B0005A460078491C0291179990476D1CBAF13E
:1037C0000001AAF1010AF1DC65E10000092801000D
:1037D0003031323334353637383961626364656687
:1037E0000000000030313233343536373839414249
:1037F000434445460000000000F058F90544761C9B
:10380000307800287FF4ECAD19B02846BDE8F08F81
:10381000620700D4062709F1070222F0070CFCE832
:103820000223E14603F000485FEA080C02D00FF2E1
:10383000702C0DE05FEA045C02D50FF2682C07E003
:103840005FEAC47C02D00FF2602C01E0AFF2700C92
:103850004FF0FF3823F00043CDF850C065280CD05E
:1038600006DC452809D046281DD047283DD13DE03B
:10387000662818D067287ED138E00021112F01DB9F
:10388000112000E0781CCDE9000106A90EA8FFF781
:10389000D5FCDDE90F010E9A03910021009207F19A
:1038A000010A04914DE04FF000400097CDE901106E
:1038B00006A90EA8FFF7C2FCDDE90F0203920E9BDA
:1038C00011990022DDF80CA00093049211B9791C23
:1038D00000EB010AB7EB0A0004D4C0F1FF3007F196
:1038E000010A0490AAEB0700019044E0012F00DADE
:1038F00001270021112F01DD112000E03846CDE91C
:10390000000106A90EA8FFF799FCDDE90F010E9A48
:103910000391002104910092BA4621070CD4039927
:10392000514500DA8A46BAF1010F05DD009AAAF185
:103930000101515C302908D0B84202DA10F1040FBD
:1039400006DA0121CDE9011015E0AAF10101E9E74C
:10395000002805DC049901440491AAEB000102E06F
:10396000411C514500DD8A460499401A401C0190D3
:103970004FF000400290200704D40198504501DB2D
:10398000CDF8048000208DF84F0002980DF14F070C
:10399000B0F1004F25D02B200E9002984FF0020876
:1039A00000280CDA404202902D200E9007E00A21F8
:1039B0000298FCF7ADFF3031029007F8011DB8F115
:1039C0000001A8F10108F2DC02980028EFD1791E6D
:1039D0000E980870307800F0200040F0450007F89D
:1039E000020D12A8C01B00F107081498007800B15E
:1039F000012000EB0A01019801EBE07105984144B8
:103A0000401A401E0590E00306D45B462146179AF3
:103A1000059800F05DF805441498007818B15A46EE
:103A2000179990476D1CE00324D55B462146179AF1
:103A3000059800F04DF805441CE00498002807DBC9
:103A4000DDE90301884203DD0098405C179901E03D
:103A5000179930205A469047049805F10105401CFB
:103A600004900198401E019004D12E205A461799C7
:103A700090476D1CBAF10001AAF1010ADDDC05E0F6
:103A800017F8010B5A46179990476D1CB8F10001C1
:103A9000A8F10108F4DC5B462146179A0598ABE6CD
:103AA0002D0000002B000000200000002DE9F04157
:103AB000044600251E461746880404D405E039460E
:103AC0002020B0476D1C641EF9D52846BDE8F08162
:103AD0002DE9F041044600251E469046C80301D555
:103AE000302700E02027880404D505E04146384609
:103AF000B0476D1C641EF9D52846BDE8F0812DE95C
:103B0000F0414FF400070E460446B94206DB24F0AC
:103B100000452846FCF7E8FE02D20020BDE8F0810F
:103B2000BC4202DB3146284601E029463046BDE86A
:103B3000F041FCF70FBE30B583B00446FFF762FBDF
:103B400005460020CDE90000024621466846FCF704
:103B500084FF2846FFF76CFBDDE9000103B030BDB0
:103B600010B500224FF480510348FDF7E5FDBDE894
:103B7000104002A0FFF74EBA000801404261636B9B
:103B800077617264210A000070B514460D4606463E
:103B9000FCF7AAFE01D2284670BD21463046FCF74C
:103BA000ADFE01D2204670BD304670BD70B50446F2
:103BB00010F1FF4F45D22348234D844208DA0021FB
:103BC0002248FEF709FBBDE8704021A0FFF722BAAA
:103BD0002888FCF741FE2146FCF786FE03D22888A0
:103BE000FCF73AFE04461C492046FCF7EBFD1B4956
:103BF000FCF7B6FD6968FCF7E5FD01461848FCF7DF
:103C0000E1FDFCF72EFE114E401E85B231686808BA
:103C1000486300213046FEF7DFFA3068C562F56080
:103C200031680020486201463046FEF77BFA2046A4
:103C3000FCF72BFEBDE8704002460B4609A0FFF7DB
:103C4000E9B970BD9A99193F000000205800002082
:103C500053746F700A000000000070420000B4430B
:103C60000050C347536574204D6F746F722073709A
:103C700065656420746F20252E32662052504D0AEF
:103C8000000000002DE9F843044602464F4869460B
:103C9000B0EB420F09D94FF0E640B0EB420F94BFB2
:103CA00000204FF0FF30009030E0494B22F0004000
:103CB000834271D947492046FCF752FDFCF737FF94
:103CC0008046FDF7E6F800F00300009042494046C8
:103CD000FCF746FD054641494046FCF741FD0646D6
:103CE0003F494046FCF73CFD07463E494046FCF74D
:103CF00037FD2146FCF731FD3946FCF72BFD3146F7
:103D0000FCF728FD2946FCF725FD04462546009CC6
:103D1000002C45DB294614F0010F08461CD0FCF7A7
:103D20001FFD06463049FCF71BFD3049FCF715FD29
:103D30003146FCF715FD2E49FCF7BAFC3146FCF77D
:103D40000FFD2946FCF70CFD2946FCF7B1FC14F0E9
:103D5000020F1CD0BDE8F883FCF702FD054625499B
:103D6000FCF7FEFC2449FCF7A3FC2946FCF7F8FC11
:103D70002249FCF79DFC2946FCF7F2FC4FF07E51EE
:103D8000FCF796FC14F0020F08BFBDE8F88380F042
:103D90000040BDE8F883FFE71046FFF77FF9B4E77E
:103DA0006800B0F17F4F3CBF4FF07E50BDE8F88314
:103DB00007D14FF00100FFF73BFABDE8F843FFF7EA
:103DC0005FB92846BDE8F843FFF757B9B61F927EA2
:103DD000490E494683F9223F1A61342C0020A23350
:103DE00000A0FD390000C93F336D4C39DA82083C30
:103DF000A0AA2ABEB93AB2BACA9F2A3DDDFFFFBEC9
:103E000010B500224FF400610348FDF795FCBDE8B2
:103E1000104002A0FFF7FEB800080140446973613A
:103E2000626C65206D6F746F720A000010B501221C
:103E3000D1020448FDF780FCBDE8104002A0FFF766
:103E4000E9B8000000080140456E61626C65206DB4
:103E50006F746F72210A00002DE9F04104464FF0A3
:103E600019404E49002500EB440088424AD84C498D
:103E70002046FCF775FCFCF75AFE8046FDF709F872
:103E8000064648494046FCF76BFC07464649404613
:103E9000FCF766FC2146FCF760FC3946FCF75AFC4F
:103EA00004464249FCF75CFC4149FCF701FC214611
:103EB000FCF756FC6FF04141FCF7FAFB2146FCF79A
:103EC0004FFC3C49FCF7F4FB2146FCF749FC01465A
:103ED000394806F00304784450F82400FCF740FC0D
:103EE0003649794451F82410FCF7E2FB344979440F
:103EF00051F82410FCF7DCFBB11085BBBDE8F041A4
:103F0000FCF79EBC4FF0FF4131EA040018D04FF09F
:103F1000CE41B1EB440F84BF4FF07E50BDE8F0813D
:103F20002849B1EB440F28BF0125A0D20220FFF79A
:103F30007FF914F0004F0ED0BDE8F041FFF7A9B8AB
:103F4000204614F5000F04BF0020BDE8F081BDE855
:103F5000F041FFF792B8BDE8F041FFF795B8FCF7E4
:103F60006FFC04000BD0B4F1FF4F0FD0FFF762F8E5
:103F7000042808BFFFF78DF82046BDE8F081022035
:103F8000FFF756F9BDE8F041FFF783B80220FFF7CD
:103F90004FF9BDE8F041FFF777B800000000501E70
:103FA0003BAAB840F4FD05370070313E12BB2A3DF4
:103FB00012BB2A3EFFFF7F3F960800007A080000F0
:103FC0005E0800000000A08510B50122110304481E
:103FD000FDF7B2FBBDE8104002A0FFF71BB80000E0
:103FE00000080140466F7277617264210A00000088
:103FF00004490A685206FCD5024AC1B2121D11607A
:10400000704700000038014070B50D46040018D01C
:10401000002060604FF4000120728D4210DB8A4264
:104020000EDB11464FF07E50FCF7CCFB06460549EF
:104030002846FCF795FB3146FCF792FBFFF70CFF97
:10404000206070BDDB0FC9C070B504000D4603D001
:104050002668B6F5000F01DA084670BD207A88B1EF
:1040600031464FF07E50FCF775FB2946FCF778FB94
:10407000054630466168FCF773FB2946FCF718FBE0
:10408000606070BD012065602072284670BD000030
:10409000FDF766FBFEF72AFDFEF770FCFEF7BAFCA3
:1040A0001A4819494FF4E13500240160C0E9015470
:1040B0000C26C460C0E904468461C461FEF750FA6E
:1040C00008B172B6FEE71148114948300160C0E9F5
:1040D0000154C460C0E904468461C461FEF740FA3B
:1040E00008B172B6FEE7094800214838FEF71AF811
:1040F000012208490548FEF7CBFA04480122064987
:104100004830FEF7C5FAFEE700380140A000002065
:104110000044004045000020460000202DE9F04109
:104120001D4616460F46040056D04FF07E5800201C
:104130006762C4E90080A060E0602061C4E90A56BB
:104140004FF40000854247DB864245DB874243DB74
:104150004FF0FF312846FCF773FB3946FCF7C4FBF0
:104160003AD91E493846FCF7FBFA2946FCF72AFBE8
:104170000546FFF787FD0746284600F0EBF90546A0
:1041800001213046FCF75CFB01462846FCF71AFB90
:10419000054646464FF040413846FCF7E1FA0746EF
:1041A00031462846FCF784FA804629463046FCF71B
:1041B000D1FA054641463046FCF704FB064620602E
:1041C00041463846FCF7FEFAC4E90106E060414684
:1041D0002846FCF7F7FA2061BDE8F081DB0FC94003
:1041E0002DE9F05F04000D462ED094F8300068B33E
:1041F000216A2069FCF7B4FAE76983463946E0682A
:10420000FCF7AEFA8246A169A068FCF7A9FA6669D4
:10421000814631466068FCF7A3FA8046294620684B
:10422000FCF79EFA4146FCF743FA4946FCF740FA90
:104230005146FCF78FFA5946FCF78CFA2762656104
:10424000C4E90660BDE8F09F0846FBE7A56165612B
:1042500025620120E56184F830002846F2E700007D
:104260002DE9FC5FFCF724FA4FF0FF31FCF7E8FA88
:10427000824C06468249E0680127DFF808A2824D99
:104280004FF00008884253DB8049FCF79BFA804AD4
:104290008049FFF779FC2178DFF8FC9149B161682A
:1042A0008B46FCF757FA4946FCF75AFA5946FCF791
:1042B000FFF97A496060FCF785FA754A4FF0814151
:1042C000FFF762FC217841B3A1688B46FCF742FA04
:1042D0004946FCF745FA5946FCF7EAF9A0608346DF
:1042E000696A60680090FCF735FA20F0004151459A
:1042F00007DC5846E96AFCF72DFA20F000414945F1
:1043000005DD674B5A4660480099FFF707FF3146C5
:104310005D48FFF765FF06460EE0A0600246604B71
:1043200059486168FFF7FAFE85F830802770EEE79C
:1043300085F8308084F80080607878B9DFF8609183
:1043400051484A4657491838FFF75EFE4E484A46DC
:104350004FF082410C38FFF757FE67704A483146EC
:104360001838FFF771FE454E01461436F069FCF728
:10437000F1F95146FFF7C3FB07463169FCF7EAF94B
:10438000014641480C38FFF75FFE0090A1462169C5
:10439000FCF7E0F9B168FCF7E3F98246394670684A
:1043A000FCF7DEF90190D6F810B038465946FCF714
:1043B000D1F93168FCF7D4F90199FCF779F9514644
:1043C000FCF776F90146B069FCF772F9B061C6E90D
:1043D000047B0346F760009820614FF08242002181
:1043E0001846FFF7D1FB2E49B061FCF7B9F92E4A08
:1043F0000021FFF7C9FB06464FF08342E16800F059
:104400006DF904462349A0F5000088420DD22748E3
:10441000D9F80C10814207DAB7F5000F04DB8642A9
:1044200002DB4FF07E5400E000241449C9F80C4030
:1044300014311F4BC8694A4620F00040984214DAF4
:10444000C2F80C80C1F81880C1F80C80C1F8108047
:10445000C1F814800C4900240C39C2F8108081F88E
:10446000088085F8308089F8008040211148FDF7E8
:104470005BF92046BDE8FC5F00F01EB80800002094
:104480000000F041CDCC4C3D4801002000007042BE
:104490000000A0419A99993ECDCC4C3ECDCCCC3E6B
:1044A00000004842000040400000C8439A99193F6C
:1044B0000AD7233C0010014070B5044610F1FF4FAD
:1044C0003AD21E481E4D844205DABDE870400021F4
:1044D0001C48FDF781BE2888FCF7BEF92146FCF791
:1044E00003FA03D22888FCF7B7F904461649204698
:1044F000FCF768F91549FCF733F96968FCF762F9CC
:1045000001461348FCF75EF9FCF7ABF90D4C401E71
:1045100085B221686808486300212046FDF75CFEEB
:104520002068C562E5602168002048620146204697
:10453000BDE87040FDF7F6BD70BD00009A99193FC7
:104540000000002058000020000070420000B4432A
:104550000050C3472DE9F8430446024652486946D5
:10456000B0EB420F09D94FF0E640B0EB420F94BFD9
:1045700000204FF0FF30009030E04C4B22F0004024
:10458000834271D94A492046FCF7EAF8FCF7CFFA92
:104590008046FCF77EFC00F0030000904549404651
:1045A000FCF7DEF8054644494046FCF7D9F80646D4
:1045B00042494046FCF7D4F8074641494046FCF7DB
:1045C000CFF82146FCF7C9F83946FCF7C3F8314665
:1045D000FCF7C0F82946FCF7BDF804462546009CC8
:1045E000002C45DB294614F0010F08461ED0FCF7CD
:1045F000B7F805463349FCF7B3F83349FCF758F8E8
:104600002946FCF7ADF83149FCF752F82946FCF78A
:10461000A7F84FF07E51FCF74BF814F0020F08BFDB
:10462000BDE8F88380F00040BDE8F883FCF798F817
:1046300006462749FCF794F82649FCF78EF83146E0
:10464000FCF78EF82449FCF733F83146FCF788F87C
:104650002946FCF785F82946FCF72AF814F0020FE2
:10466000E0D1BDE8F883FFE71046FEF717FDB4E799
:104670006800B0F17F4F09D22846FEF7DBFC042822
:1046800008BFFEF706FD2846BDE8F88306D10120E5
:10469000FEF7CEFDBDE8F843FEF7F2BC2846BDE8C4
:1046A000F843FEF7EABC0000B61F927E490E494669
:1046B00083F9223F1A61342C0020A23300A0FD3977
:1046C0000000C93FB93AB2BACA9F2A3DDDFFFFBE1A
:1046D000336D4C39DA82083CA0AA2ABE2DE9F0419C
:1046E00014460F460546B2F5000F19DBFCF732F809
:1046F00006462146FCF702F905D221463846BDE8B8
:10470000F041FBF7D5BF84F000403146FCF7F6F8E6
:1047100005D221463846BDE8F041FCF71BB82846D3
:10472000BDE8F08100000000000000000102030469
:104730000607080900000000010203040102020349
:104740000405060708090A0B0C0D0E0F10100000D7
:104750000000803F0030983F0000B53F0040D73F49
:1047600000000000320A7E397F661E395B991F39CE
:104770000000803FF037983FF304B53FFD44D73F3A
:10478000000000006E83F9A22915444ED15727FC82
:10479000C0DD34F5999562DB4190433CAB6351FE3B
:1047A000DDDDDDDDDCBBBBDDDDDDDDDDDDDDDDDD7E
:1047B00098888888888888887777777777888888BE
:1047C0008555555666666666666666666668888856
:1047D0008333333222222222222222222228888D4F
:1047E000506C656173652073657420436F6E4D6F07
:1047F000646520746F20302028466F726365204303
:104800006F6E74726F6C204D6F64652920626566EF
:104810006F7265207573696E67204620636F6D6DDA
:10482000616E642E0A000000506C65617365207330
:10483000657420436F6E4D6F646520746F20312066
:1048400028537065656420436F6E74726F6C204DE1
:104850006F646529206265666F7265207573696E85
:104860006720436F6E20636F6D6D616E642E0A006A
:104870009048000800000020580000001032000896
:10488000E8480008580000202807000020320008EF
:10489000DC0500006666663E0000000000000000C7
:1048A0000000000000000000000000009A99993EFE
:1048B000CDCCCC3D0AD7A33C000000000000000096
:1048C00000000000000000000000000000000000E8
:1048D00000127A000000000001000000100000003B
:0848E0000000000000000000D0
:0400000508000131BD
:00000001FF
